:020000040800F2
:10000000C841002439030008033000081F2F0008EE
:10001000013000080F050008453F000800000000FF
:10002000000000000000000000000000BB3D0008D0
:10003000110500080000000005300008BD3D000863
:100040005303000853030008530300085303000838
:100050005303000853030008530300085303000828
:100060005303000853030008530300085303000818
:100070005303000853030008530300085303000808
:1000800053030008530300085303000853030008F8
:1000900053030008530300085303000853030008E8
:1000A00053030008530300085303000853030008D8
:1000B00053030008530300085303000853030008C8
:1000C00053030008530300085303000853030008B8
:1000D00053030008530300085303000853030008A8
:1000E00053030008530300080000000053030008F6
:1000F0005303000853030008530300085303000888
:100100005303000849320008530300085303000852
:100110005303000853030008530300085303000867
:100120005303000853030008530300085303000857
:100130005303000853030008530300085303000847
:1001400000000000000000000000000000000000AF
:100150005303000853030008530300085303000827
:100160005303000853030008530300085303000817
:100170005303000853030008530300085303000807
:1001800053030008530300085303000853030008F7
:1001900053030008530300085303000853030008E7
:1001A00053030008530300085303000853030008D7
:1001B00053030008530300085303000853030008C7
:1001C00053030008530300085303000853030008B7
:1001D00053030008530300085303000853030008A7
:1001E0005303000853030008530300085303000897
:1001F0005303000853030008530300085303000887
:100200005303000853030008530300085303000876
:100210005303000853030008530300085303000866
:1002200053030008530300085303000800000000B4
:1002300053030008530300080000000053030008A4
:100240005303000853030008530300085303000836
:100250005303000853030008530300085303000826
:100260005303000853030008530300085303000816
:100270005303000853030008530300080000000064
:100280005303000853030008530300080000000054
:10029000000000005303000800F002F800F03CF8F2
:1002A0000AA090E8000C82448344AAF10107DA45D1
:1002B00001D100F031F8AFF2090EBAE80F0013F0E7
:1002C000010F18BFFB1A43F001031847BC59000087
:1002D000DC590000103A24BF78C878C1FAD8520718
:1002E00024BF30C830C144BF04680C6070470000B0
:1002F0000023002400250026103A28BF78C1FBD82F
:10030000520728BF30C148BF0B6070471FB505F0CA
:1003100078FA1FBD10B510BD00F058F81146FFF770
:10032000F5FF05F067F800F076F803B4FFF7F2FF89
:1003300003BC00F07DF800000948804709480047E9
:10034000FEE7FEE7FEE7FEE7FEE7FEE7FEE7FEE785
:10035000FEE7FEE704480549054A064B70470000E2
:10036000693E000899020008C8210024C841002401
:10037000C8310024C83100244FF0000200B51346F4
:1003800094469646203922BFA0E80C50A0E80C50B5
:10039000B1F12001BFF4F7AF090728BFA0E80C5066
:1003A00048BF0CC05DF804EB890028BF40F8042B5F
:1003B00008BF704748BF20F8022B11F0804F18BFCC
:1003C00000F8012B7047704770477047754600F082
:1003D0002BF8AE4605006946534620F007008546D7
:1003E00018B020B5FFF7B6FFBDE820404FF000067B
:1003F0004FF000074FF000084FF0000B21F007010D
:10040000AC46ACE8C009ACE8C009ACE8C009ACE84F
:10041000C0098D46704710B50446AFF300802046F2
:10042000BDE81040FFF781BF0048704764210024F9
:1004300001491820ABBEFEE726000200704700000D
:1004400010B504480124802100F0B0F900B1002467
:10045000204610BD001002580146014802F0C6B8FF
:10046000BC200024044810B502F0D2F8042801D0C2
:10047000012010BD002010BDBC20002410B500F0EC
:1004800015F8012801D0022010BD074802F05CFADF
:10049000040006D104484FF4804101F0DBFE00B1B6
:1004A0000124204610BD0000BC20002408B5012016
:1004B0008DF80000FFF7C4FF10B900208DF8000090
:1004C0009DF8000008BD000038B5002400931346D5
:1004D0000A460146034802F037FB00B101242046DA
:1004E00038BD0000BC2000247047000038B500244F
:1004F000009313460A460146034802F00FFC00B180
:100500000124204638BD0000BC2000247047FEE7CF
:10051000704772B6FEE70022AFF300800E4B70B555
:1005200005465C7A0120002C14D15E7A03F10800A4
:100530009C555E7A03EB860675605D7A2A54587A7C
:10054000421C5A723A232F22303008704B702046DA
:100550008A70CC7070BD00005821002470B504462C
:1005600000F034F90546601C02D0044800780444C9
:1005700000F02CF9401BA042FAD370BD38000024D3
:100580002DE9F84F03247D4D00234FF001094FF072
:10059000B04B4FF00F0AE9E009FA03F73A4076D082
:1005A0000E7906F00306012E01D0022E18D1D0F8E4
:1005B00008C04FEA430ECE6804FA0EF82CEA080C85
:1005C00006FA0EF646EA0C068660D0F804C00E79EC
:1005D0002CEA070CC6F300169E4046EA0C0646605D
:1005E0000E79F643B6070BD0C6684FEA43088F680A
:1005F00004FA08FC26EA0C0607FA08F73743C76036
:100600000E7906F00306022E12D1DE080F694FEABA
:10061000437C00EB8606B646366A4FEADC6C0AFA83
:100620000CF807FA0CF726EA08063743CEF82070D4
:100630000F7906684FEA430807F0030704FA08FC3D
:1006400007FA08F726EA0C06374307604E6816F4E7
:10065000403F1CD04A4E376847F002073760366883
:100660009F0706F00206009623F0030606F1B04647
:10067000B6463F0FD6F80864DFF808810AFA07FC8F
:10068000404526EA0C0603D14FF0000C41E06CE037
:10069000DFF8F4C0604502D14FF0010C39E0DFF81B
:1006A000ECC0604502D14FF0020C32E0DFF8E0C050
:1006B000604502D14FF0030C2BE0DFF8D8C0604555
:1006C00002D14FF0040C24E0DFF8CCC0604502D129
:1006D0004FF0050C1DE0DFF8C4C0604502D14FF0BB
:1006E000060C16E0DFF8B8C0604502D14FF0070CE9
:1006F0000FE0DFF8B0C0604502D14FF0080C08E011
:10070000DFF8A4C0604502D14FF0090C01E04FF0C2
:100710000A0C0CFA07FC4CEA060CCEF808C44F6829
:10072000DBF80060FF0226EA020600D516435F46AA
:10073000CBF80060D1F804C0DBF804605FEA8C2CD1
:1007400026EA020600D516437E606E684F6826EAE8
:100750000206BF0300D516436E602E684F6826EA76
:100760000206FF0300D516432E605B1C0A6832FAAE
:1007700003F67FF411AFBDE8F88F00008000005849
:10078000F4440258000002580004025800080258BD
:10079000000C0258001002580014025800180258A9
:1007A000001C02580020025800240258006908402A
:1007B00000D0012070470AB1816170470904FBE74E
:1007C00001480068000C70470010005C0148806818
:1007D0007047000038000024024881680278114404
:1007E0008160704738000024032010B500F0D4F871
:1007F00001F0F8F90F4A104914681368C4F3032292
:1008000003F00F038A5CC95C02F01F0201F01F01B4
:10081000D0400A4A20FA01F11160094908600F200E
:1008200000F010F808B1012010BD00F079F80020A8
:1008300010BD000018440258205800084800002449
:100840004400002470B50D4D04462878A0B14FF443
:100850007A71B1FBF0F00A490968B1FBF0F002F0DF
:100860004BFB48B9102C07D200222146501E00F045
:1008700073F800206C6070BD012070BD380000244A
:1008800044000024F0B5154C4378211D0A1D236057
:100890000378F3B143680B60057BC67A817A437BAA
:1008A0002D07847B45EA0665C77B90F809C0067A68
:1008B00090F800E045EAC14040EA834040EA444005
:1008C00040EA074040EA0C2040EA460040EA0E00B9
:1008D00001E0002008601060F0BD000098ED00E02D
:1008E000BFF35F8F044800210368034A23F4803379
:1008F000036070321160704724ED00E0074A40F059
:100900000100064970321060086840F480300860C9
:10091000BFF34F8FBFF36F8F7047000024ED00E0EF
:10092000054808B5016841F002010160006800F067
:100930000200009008BD0000F4440258002809DBC2
:10094000410900F01F028900012001F1E0219040DF
:10095000C1F80001704700000E4BF0B41B680D4653
:10096000C3F30223C3F10706042E00D90426191D80
:10097000072901D2002300E0DB1E012404FA06F15E
:100980009C40491E2940641E994014402143F0BCFC
:1009900003F0D9BA0CED00E0064900F0070210B5EB
:1009A0004FF6FF040868044B204040EA0220184339
:1009B000086010BD0CED00E00000FA05134970B5A9
:1009C0000A68D243520705D5096801F00701814240
:1009D00013D118E00A6822F0070202430A60FFF709
:1009E000F5FE0A4D4FF47A760446083D07E000BF55
:1009F000FFF7ECFE001BB04201D9012070BD286852
:100A0000C0438004F4D4002070BD00000C4802589C
:100A100010B501F0C5F805490968054AC1F302118E
:100A2000515C01F01F01C84010BD00002044025875
:100A3000205800084A4930B5494C0B1D0A680C344F
:100A400009681D68246802F0030305F00102C1F380
:100A50000511C4F3CC04002914FB02F200EE102AA5
:100A6000F8EE400A76D0414A9FED3E1ADFED3E1A7D
:100A7000B7EE000A23B1012B5AD0022B18D15CE04B
:100A8000374C283C23689B0612D5394B246801EE6D
:100A9000901A1168C4F3C104F8EE612AE34001EE34
:100AA000903AC1F30801F8EE611A81EEA22A07E03C
:100AB00002EE101A1168F8EE422A81EEA22A45E0F1
:100AC00001EE901A1168F8EE611A40EE811A71EE8B
:100AD000800A62EE200AC1F3462101EE101AB8EE38
:100AE000411A31EE001AC0EE811ABCEEE11A80ED17
:100AF000001A1168C1F3064101EE101AB8EE411A4E
:100B000031EE001AC0EE811ABCEEE11A80ED011A36
:100B10001168C1F3066101EE101AB8EE411A31EE08
:100B2000000A80EE801ABCEEC10A80ED020A30BDD8
:100B300001EE901ADFED0F2A03E001EE901ADFEDCF
:100B40000E2A1168F8EE611A82EEA12AC1F308019B
:100B5000B6E7FFE7002101604160816030BD000021
:100B600028440258000000390024744C30440258D4
:100B70000090D0030024744A20BCBE4B494930B5D4
:100B8000484C0B1D0A68143409681D68246802F07B
:100B90000303C5F30012C1F30531C4F3CC040029EB
:100BA00014FB02F200EE102AF8EE400A75D03F4A1C
:100BB0009FED3D1AB7EE000A6BB1DFED3D1A012B38
:100BC00001D0022B64D002EE101A1168F8EE422A0E
:100BD00081EEA22A21E0334C283C23689B0612D5E3
:100BE000344B246801EE901A1168C4F3C104F8EE86
:100BF000612AE34001EE903AC1F30801F8EE611A70
:100C000081EEA22A0BE001EE901ADFED2B2A00BF45
:100C1000F8EE611A116882EEA12AC1F3080101EE13
:100C2000901A1168F8EE611A40EE811A71EE800A8E
:100C300062EE200AC1F3462101EE101AB8EE411A05
:100C400031EE001AC0EE811ABCEEE11A80ED001AF6
:100C50001168C1F3064101EE101AB8EE411A31EEE7
:100C6000001AC0EE811ABCEEE11A80ED011A11687B
:100C7000C1F3066101EE101AB8EE411A31EE000A16
:100C800080EE801ABCEEC10A80ED020A30BD04E09D
:100C900001EE901ADFED092ABAE7002101604160F8
:100CA0008160F3E7284402580000003938440258B4
:100CB0000024744A0090D0030024744C20BCBE4B26
:100CC000494930B5484C0B1D0A681C3409681D6839
:100CD000246802F00303C5F30022C1F30551C4F3F5
:100CE000CC04002914FB02F200EE102AF8EE400AB0
:100CF00075D03F4A9FED3D1AB7EE000A6BB1DFEDAC
:100D00003D1A012B01D0022B64D002EE101A11689B
:100D1000F8EE422A81EEA22A21E0334C283C2368D7
:100D20009B0612D5344B246801EE901A1168C4F367
:100D3000C104F8EE612AE34001EE903AC1F30801E4
:100D4000F8EE611A81EEA22A0BE001EE901ADFEDB7
:100D50002B2A00BFF8EE611A116882EEA12AC1F3B6
:100D6000080101EE901A1168F8EE611A40EE811A3E
:100D700071EE800A62EE200AC1F3462101EE101ADC
:100D8000B8EE411A31EE001AC0EE811ABCEEE11A3B
:100D900080ED001A1168C1F3064101EE101AB8EE99
:100DA000411A31EE001AC0EE811ABCEEE11A80ED54
:100DB000011A1168C1F3066101EE101AB8EE411A6A
:100DC00031EE000A80EE801ABCEEC10A80ED020A04
:100DD00030BD04E001EE901ADFED092ABAE70021E8
:100DE000016041608160F3E7284402580000003947
:100DF000404402580024744A0090D0030024744CEC
:100E000020BCBE4B2DE9F04F944A4FF48079DFF8B7
:100E100048824845924B89B0924EA8F10405924908
:100E20004FF080574FEA22144FF0005C2ED1D8F8D3
:100E3000000000F00700052824D2DFE800F09BB591
:100E40008425AA0003A8FFF7F5FD049809B0BDE8C2
:100E5000F08F6846FFF792FE0098F7E706A8FFF7C5
:100E60002FFF0698F2E70868C0F3C10022FA00F0ED
:100E7000ECE70A68D2057CD5B8427AD12046E5E78E
:100E80001846E3E70020E1E73046DFE7B0F5007FF2
:100E90001AD0DFF8D891B0F5806F26D0B0F5006F8A
:100EA00037D04FF4805A50454FF4804B4FD1D8F88B
:100EB000000000F4E040B0F5005F44D03DDC0028C5
:100EC00058D05045DED16FE0D8F8000000F4E07053
:100ED000802838D004DC00284CD04028D2D163E0F0
:100EE000C028D1D04845CDD153E0D9F8000000F456
:100EF0006000B0F5800F26D004DCD8B3B0F5001F39
:100F0000C0D151E0B0F5C00FBED0B0F5000FB9D1DF
:100F10003FE0D9F8000000F0E060B0F1007F12D0AF
:100F200004DC38B3B0F1807FACD13DE0B0F1407F5C
:100F3000AAD0B0F1806FA5D12BE0B0F5405FA3D06F
:100F400058459FD125E0086880009BD586E7B0F51D
:100F5000002F4FF4803612D0B04237D1286810F4F9
:100F6000803075D0B0428DD1086800018AD56846BE
:100F700001E025E06CE0FFF701FE029866E7D9F892
:100F8000000010F440300FD0B04211D0B0F5003F57
:100F900098D128680D6800F040506D077FF569AF63
:100FA00000287FF466AF5EE708680001CDD550E702
:100FB00008688000C9D506A8FFF782FE089845E7B3
:100FC00009688903C1D5604588D159E758452BD1B7
:100FD000D9F8000000F0E040B0F1405F1CD00CDC1C
:100FE00090B1B8422CD060458AD108688000ACD559
:100FF00006A8FFF765FE079828E7B0F1804F0FD0ED
:10100000B0F1A04F90D11FE0FFF702FD1EE7684648
:10101000FFF7B4FD019819E70868400795D522E766
:101020000868C00591D529E7B0F5004F89D1D8F8F7
:10103000000010F0405007D0B84209D0604592D16E
:1010400008680001E3D41DE708688003FBD517E7B3
:1010500008688001F7D5F5E6504402580090D003A7
:1010600040787D010080BB0000440258584402587B
:101070002DE9FC5F044650F8241B002500902E4605
:101080000801FE4FDFF8F8831DD5606E50B1B0F552
:10109000801F0CD0B0F5001F0ED0B0F5401F1DD042
:1010A00001250FE0386840F40030386016E0022176
:1010B000201D01F0A9FF03E00098022102F034F89E
:1010C00005000BD02E462088C00523D5606D05286D
:1010D0001ED2DFE800F00C11161B1B00626ED8F860
:1010E000001021F440111143C8F80010EBE73868F4
:1010F00040F40030386009E00021201D01F084FF39
:1011000003E00098002102F00FF805466DB100E001
:1011100001252E462088800528D5A06D80281ED068
:101120000CDC90B140280ED114E0626DD8F80010AC
:1011300021F007011143C8F80010EBE7C02813D0D5
:10114000B0F5807F10D001250FE0386840F4003002
:10115000386009E00021201D01F056FF03E00098EF
:10116000002101F0E1FF054695B12E462088DFF809
:101170001093400509F108092CD5D4F8A400B0F566
:10118000800F20D00DDCA0B1B0F5001F0FD115E00D
:10119000A26DD8F8001021F4E0711143C8F80010D6
:1011A000E4E7B0F5C00F13D0B0F5000F10D0012563
:1011B0000FE0386840F40030386009E00021201D5D
:1011C00001F022FF03E00098002101F0ADFF054689
:1011D00075B12E46208800052DD5D4F8A800B0F1B1
:1011E000007F21D00EDCA8B1B0F1807F10D116E0D5
:1011F000D4F8A420D9F8001021F460011143C9F8F3
:101200000010E7E7B0F1407F13D0B0F1806F10D04D
:1012100001250FE0386840F40030386009E0002113
:10122000201D01F0F1FE03E00098002101F07CFF99
:1012300005466DB12E46206880011FD5A06CD8B13F
:1012400010280FD0202812D0302815D0012514E006
:10125000D4F8A820D9F8001021F0E0611143C9F8B2
:101260000010E8E7386840F40030386004E00221FC
:10127000201D01F0C9FE05466DB12E462088C00430
:101280002BD5E06DB0F5005F20D00DDCA0B1B0F53E
:10129000805F0FD115E07A48A26C001F016821F031
:1012A000300111430160E9E7B0F5405F13D0B0F5BC
:1012B000804F10D001250FE0386840F400303860CE
:1012C00009E00021201D01F09FFE03E000980021AD
:1012D00001F02AFF054685B12E462088800429D5D5
:1012E000206EB0F5403F23D010DC08B3B0F5803F4E
:1012F00014D0B0F5003F0FD115E0E26DD8F8001022
:1013000021F4E0411143C8F80010E6E7B0F5802F62
:101310000ED0B0F5A02F0BD001250AE00121201D31
:1013200001F072FE03E00098012101F0FDFE054688
:101330008DB12E46208840042AD5D4F8AC00B0F1F7
:10134000405F23D010DC08B3B0F1805F14D0B0F15F
:10135000005F0FD115E0226ED8F8001021F4E021D3
:101360001143C8F80010E5E7B0F1804F0ED0B0F19E
:10137000A04F0BD001250AE00121201D01F044FE01
:1013800003E00098012101F0CFFE05466DB12E4625
:10139000208800041FD5E06ED8B1B0F1805F0ED078
:1013A000B0F1005F10D0012514E0D4F8AC20D9F8DA
:1013B000001021F0E0411143C9F80010E8E7386857
:1013C00040F40030386004E00121201D01F01CFED3
:1013D00005466DB12E462068C0011ED5606CD0B1A7
:1013E00001280ED0022811D0032814D0012513E0C3
:1013F000E26ED8F8001021F040511143C8F80010F7
:10140000E9E7386840F40030386004E00221201D2C
:1014100001F0FAFD054685B12E462068DFF85CB084
:101420004002ABF11C0B57D51648016841F480719E
:101430000160FFF7CBF982460EE01148626C001F95
:10144000016821F0030111430160E6E7FFF7BEF9EF
:10145000A0EB0A0064283DD80A480068C005F5D50D
:101460007DBBDFF81CA0B4F8B0200AF1200ADAF83E
:10147000001002F4407001F4407105E02C44025861
:101480005044025800480258814211D0DAF8001046
:10149000DAF8002021F4407142F48032CAF80020CA
:1014A000DAF8002022F48032CAF80020CAF80010CE
:1014B000D4F8B000B0F5807F21D1FFF787F9019013
:1014C00019E008E0FFF782F90199411A41F28830EA
:1014D000814210D903252E462078DFF844A4C007A6
:1014E0003DD0A06F182838D026DC80B3082829D03A
:1014F000102825D12CE0DAF800008007E2D5D4F8D6
:10150000B010C1F30120032858460DD0016821F422
:101510007C510160B4F8B020DAF80010C2F30B027D
:101520001143CAF80010D7E7FE4A036802EA111215
:1015300023F47C511143ECE720280ED028280CD04E
:1015400001250BE00121201D01F05EFD04E004E017
:101550000098012101F0E8FD05465DB12E46207896
:1015600080071ED5606F062819D2DFE800F0160C40
:1015700011161616A26FDAF8001021F03801114387
:10158000CAF80010EBE70121201D01F03DFD03E04A
:101590000098012101F0C8FD054675B100E0012564
:1015A0002E46207840071FD5D4F89000062819D27F
:1015B000DFE800F0160C11161616626FDAF800104C
:1015C00021F007011143CAF80010EAE70121201DAC
:1015D00001F01AFD03E00098012101F0A5FD054688
:1015E0009DB100E001252E46207880062BD5D4F849
:1015F0008C00B0F1405F24D011DC10B3B0F1805FFB
:1016000015D0B0F1005F10D116E0D4F89020D9F8D1
:10161000001021F007011143C9F80010E4E7B0F110
:10162000804F0ED0B0F1A04F0BD001250AE0002171
:10163000201D01F0E9FC03E00098022101F074FD97
:1016400005468DB12E46207840062BD5D4F898005B
:10165000B0F5406F24D011DC10B3B0F5806F15D019
:10166000B0F5006F10D116E0D4F88C20DAF8001035
:1016700021F0E0411143CAF80010E4E7B0F5805FC3
:101680000ED0B0F5A05F0BD001250AE00021201D8F
:1016900001F0BAFC03E00098022101F045FD054687
:1016A0008DB12E46207800062BD5D4F89C00B0F5DD
:1016B000C04F24D011DC10B3B0F5005F15D0B0F5E9
:1016C000804F10D116E0D4F89820D9F8001021F4FA
:1016D000E0511143C9F80010E4E7B0F5004F0ED017
:1016E000B0F5204F0BD001250AE00021201D01F0AC
:1016F0008BFC03E00098022101F016FD05464DB178
:101700002E46207800071ED5D4F88000B0F5805F03
:101710000AD00FE0D4F89C20D9F8001021F46041E1
:101720001143C9F80010ECE70098022101F0FCFC1D
:1017300000B10126D4F88020DAF8001021F44051DD
:101740001143CAF800102078C00613D5D4F89400CD
:10175000B0F5807F05D10098022101F0E5FC00B1D1
:101760000126D4F89420D9F8001021F440711143D7
:10177000C9F800102068000316D5D4F8A00038B1CD
:10178000B0F5803F09D0B0F5003F0BD001250AE04D
:101790000021201D01F038FC03E00098022101F037
:1017A000C3FC054685B12E462068400322D5D4F8F7
:1017B0008400B0F5801F11D0B0F5001F13D0B0F534
:1017C000401F15D0012514E0D4F8A020D9F800104E
:1017D00021F440311143C9F80010E5E7386840F4BE
:1017E0000030386004E00098012101F09DFC0546BE
:1017F00055B12E462068C0031CD5E06C70B1B0F521
:10180000803F10D0012514E0D4F88420DAF80010CD
:1018100021F440111143CAF80010EBE7386840F496
:101820000030386004E00221201D01F0EDFB054688
:10183000CDB12E462068800005D50098022101F028
:1018400073FC00B10126206880031BD5E06FB8B19E
:10185000B0F5807F10D0B0F5007F11D0B0F5407F9B
:101860000ED001250DE02E48E26C0838016821F405
:10187000803111430160DDE7386840F400303860A2
:10188000F5B32E462068C00207D5226FD8F80010A5
:1018900021F000411143C8F800102068C00008D5AD
:1018A000D4F8B420DBF8001021F480411143CBF8C8
:1018B00000102068800207D5A26ED8F8001021F031
:1018C00080711143C8F80010206840000CD5DBF887
:1018D000001021F40041CBF80010DBF80010D4F820
:1018E000B8201143CBF800102068002807DA0C4814
:1018F000226D0838016821F040511143016000E079
:1019000014E02068000208D5D4F88820DAF8001026
:1019100021F440011143CAF8001086B1012003E010
:1019200054440258CFFFFF00BDE8FC9FE26FDAF895
:10193000001021F440711143CAF80010A2E7002002
:10194000EDE700002DE9F05F04000F467ED0DFF8E0
:101950003882D8F8000000F00F00B8420CD2D8F856
:10196000001021F00F013943C8F80010D8F800002A
:1019700000F00F00B84269D12078844D40070AD5A5
:101980002069296801F07001884204D9296821F092
:1019900070010143296020787C4E361D00070AD56E
:1019A0006069316801F07001884204D9316821F022
:1019B0007001014331602078C0060AD5A069316802
:1019C00001F4E061884204D9316821F4E061014307
:1019D00031602078DFF8B4B180060BF1080B0CD52C
:1019E000E1695846DBF8002002F07002914204D908
:1019F000026822F070020A430260207880070AD54C
:101A0000E068296801F00F01884204D9296821F0B3
:101A10000F01014329602078C0073ED05B49A268CE
:101A20002868183920F47060104328606068022824
:101A300018D0032819D00968012819D049070029AE
:101A40004ADADFF848A1AAF1080A00E044E0DAF82F
:101A5000002022F007020243CAF80020FEF7B6FE7B
:101A6000814612E009688903E9E709688901E6E728
:101A7000C905E4E7FEF7AAFEA0EB090141F28830B0
:101A8000814202D90320BDE8F09F6168DAF80000C6
:101A900000F03800B0EBC10FECD1207880070AD5F8
:101AA000E068296801F00F01884204D2296821F01A
:101AB0000F0101432960D8F80010404601F00F01E2
:101AC000B9420BD9016821F00F0139430160006868
:101AD00000F00F00B84201D00120D4E72078400781
:101AE0000AD52069296801F07001884204D229686A
:101AF00021F0700101432960207800070AD5606950
:101B0000316801F07001884204D2316821F070011F
:101B1000014331602078C0060AD5A069316801F41C
:101B2000E061884204D2316821F4E0610143316010
:101B3000207880060CD5E1695846DBF8002002F0D9
:101B40007002914204D2026822F070020A430260DD
:101B500000F048F80E492A682B68C2F3032203F00C
:101B60000F038A5CC95C02F01F0201F01F01D04024
:101B7000084A20FA01F11160074908600748006827
:101B8000BDE8F05FFEF75EBE002000521844025828
:101B90002058000848000024440000243C00002491
:101BA00030B500F01FF80B4A0B490C4B1568146850
:101BB000C5F3032204F00F048A5C095D02F01F02E2
:101BC00001F01F01D040064A20FA01F119601060AF
:101BD000084630BD18440258205800084800002428
:101BE00044000024454970B545480968434B103B03
:101BF00011F0380208D00111082A03D0102A0BD0A6
:101C0000182A0BD0084670BD19688906FBD51968DB
:101C1000C1F3C101C84070BD3A4870BD3749374D66
:101C200018310C1D24350A68096826682D6802F0F1
:101C3000030406F00102C1F30511C5F3CC0515FB41
:101C400002F200EE102AB8EE400AE9B32F4ADFEDA7
:101C50002E0AB7EE001A6CB1DFED2D1A012C01D05F
:101C6000022C43D002EE101A1068F8EE422A81EEE0
:101C7000A22A1EE01C68A40611D51B6801EE901A6A
:101C80001168C3F3C103F8EE612AD84001EE900A4F
:101C9000C1F30800F8EE611A81EEA22A0BE001EE12
:101CA000901ADFED1C2A00BFF8EE611A106882EE70
:101CB000A12AC0F3080001EE900AF8EE611A40EE86
:101CC000201A31EE810A00E015E022EE000A1068C9
:101CD000C0F34620401C00EE900AF8EE600A80EE49
:101CE000201ABCEEC10A10EE100A70BD01EE901A67
:101CF000DFED092AD8E7002070BD0000104402582B
:101D00000090D00340787D01000000393044025833
:101D10000024744A0024744C20BCBE4B2DE9F05FB3
:101D200004007DD0FF4F2078FE4D1837DFF8F49384
:101D3000103DC00748D0D9F80000396800F03800DD
:101D4000102815D0182803D101F0030002280FD065
:101D50006068B0F5803F12D010B1B0F5A02F18D058
:101D6000286820F480302860286820F4802009E06A
:101D70002868800328D560680028D2D024E028682D
:101D800040F480302860606888B1FEF71FFD064689
:101D900009E0286840F480202860F0E7FEF716FD8F
:101DA000801B64286FD828688003F7D50CE0FEF705
:101DB0000DFD064605E000BFFEF708FD801B642808
:101DC000F0D828688003F7D4207841F20308D54E74
:101DD0000C3E800769D5D9F80000396810F038004A
:101DE0000ED0182801D188070AD0E06890B329687E
:101DF00021F0190101432960FEF7E8FC824631E039
:101E00002868400702D5E06800288AD0E168286881
:101E100020F0190008432860FEF7D8FC824607E04E
:101E2000DFE000BFFEF7D2FCA0EB0A000228B9D821
:101E300028684007F6D500BFFEF7C2FC40451BD816
:101E40002069402812D0316821F47C3141EA003009
:101E500030602AE018E000BFFEF7B8FCA0EB0A00F3
:101E600002289FD828684007F6D5E5E7306820F4B7
:101E70007C3040F40030EBE7207C316821F0FE41FB
:101E800041EA0060E4E70DE1286820F001002860E5
:101E9000FEF79CFC824605E0FEF798FCA0EB0A00EA
:101EA00002288DD828684007F6D42078C0065DD572
:101EB000D9F80000DFF86CB2396800F03800ABF1F7
:101EC000040B082810D0182803D101F003000128C2
:101ED0000AD0E0690028286838D040F080002860E7
:101EE000FEF774FC824623E02868C00523D5E0692C
:101EF000802876D11FE0206A202821D0316821F087
:101F0000F84141EA8060306030E000BF94F8201072
:101F1000DBF8002022F07C5242EA0161CBF800108D
:101F200024E000BFFEF752FCA0EB0A00022898D87C
:101F30002868C005F6D5FEF743FC4045E6D8DAE749
:101F4000306820F0F84040F08040DCE720F080006E
:101F50002860FEF73BFC064605E000BFFEF736FCB6
:101F6000801B02289DD82868C005F7D42078000778
:101F700029D56C486169643000298046016811D018
:101F800041F001010160FEF721FC064605E000BFBB
:101F9000FEF71CFC801B0228C9D8D8F80000800777
:101FA000F6D510E021F001010160FEF70FFC0646B6
:101FB00005E000BFFEF70AFC801B022872D8D8F8A3
:101FC00000008007F6D42078800623D5A069002879
:101FD000286810D040F480502860FEF7F7FB0646D2
:101FE00005E02CE1FEF7F2FB801B02285AD8286896
:101FF0008004F7D50EE020F480502860FEF7E6FB61
:10200000064604E0FEF7E2FB801B02284AD8286857
:102010008004F7D4207840074FD5DFF80C81D8F83A
:10202000001041F48071C8F80010FEF7CFFB06469F
:1020300005E000BFFEF7CAFB801B642832D8D8F841
:102040000000C005F6D5374EA068603601280AD0DA
:1020500008B1052813D0306820F0010030603068E6
:1020600020F0040002E0306840F001003060A06819
:1020700041F2883A90B1FEF7A9FB80460AE0306849
:1020800040F004003060EEE7FEF7A0FBA0EB080193
:10209000514507D830688007F6D50EE0FEF796FB6D
:1020A000804607E084E000BFFEF790FBA0EB08014C
:1020B00051457DD830688007F6D4606AB0B3DFF848
:1020C0006480D9F8001008F12008C1F3C201032987
:1020D0006FD00228286820F08070286003D0FEF7B7
:1020E00075FB044680E0FEF771FB064605E000BF85
:1020F000FEF76CFB801B022873D828688001F7D498
:10210000E26A40F2F331386854F8283F884340EAE5
:10211000021018433860217B4FF4FE0C22894FF0E7
:10212000FE4704E0104402580048025889E0208A23
:102130004902521E267DA1F5007189B2401EC2F3EC
:1021400008021143761E0CEA004001433E4807EAAC
:10215000066211433C4AC8F800100832016821F0B9
:102160000101016011684FF6F876236AB14341EA34
:10217000C30111600168A26921F00C0111430160E3
:102180000168E26921F0020111430160016841F434
:1021900080310160016841F400310160016841F45F
:1021A00080210160016841F001010160286801E0BF
:1021B00017E01DE040F080702860FEF707FB044642
:1021C00005E000BFFEF702FB001B022809D82868C3
:1021D0008001F7D535E000BFFEF7F8FA001B0228B2
:1021E00002D90320BDE8F09F28688001F4D428E0DC
:1021F00039680128D8F8000021D0A26A01F0030351
:1022000093421CD1E26AC1F305118A4217D1216BB6
:10221000C0F30802491E8A4211D1616BC0F3462205
:10222000491E91420BD1A16BC0F30642491E914257
:1022300005D1E16BC0F30660491E814201D0012047
:10224000D0E70020CEE700002C44025870477047CA
:10225000704770472DE9FC5F0446806B0E460321F2
:1022600084F83010002703285CD0B6F5004F59D011
:10227000B6F5804F4FF000054FF400684FF08069CD
:1022800004D006B3606B40F000603FE00095002191
:102290000195206801F02AFB80011CD46946204684
:1022A00001F06CFB70BB019840032DD5B4F84410CD
:1022B0002068090400F0CEFF20BB206802211DE049
:1022C000606B284322E0009500210195206801F011
:1022D0000DFB800101D54546F2E76946204601F035
:1022E0004DFB78B90198C0030ED5B4F844102068AE
:1022F000090400F0AFFF28B92068002100F0F4FFC6
:102300000028DDD00546DBE74D46D9E76063606B0A
:102310004FF4007BDFF8B8A040B121680127C1F875
:1023200038A042E0606B40F08050EFE74FF480301F
:10233000FEF768FD010033D0264D3346D4E904C0D2
:10234000B1FBF5F8D4E90192804511D9A66D5E453F
:102350000ED0B6F5807F12D04FEA6506E8B14FEA9D
:102360004008B1FBF8F8B04502D900BFB1FBF5F069
:102370004946CDE900C0206801F0BCFA15E0164ED0
:1023800030B14FEA4008B1FBF8F8A84502D8EFE7B2
:10239000A942EDD9B1FBF6F0EAE7B142E6D8E7E7AA
:1023A000606B012740F0006060632068594600F0D0
:1023B00082FF30B122680127C2F838A0616B014367
:1023C0006163012084F830003846BDE8FC9F0000BE
:1023D000FF0FE01F80F0FA0200E1F505704710B52D
:1023E00050F86C2F0123120E0A700268120A4A80FC
:1023F00002784468120642EA14224A6002790A729C
:102400008268120E4A72D0E90224120242EA146271
:10241000CA60C268C2F303520A74C268C2F30B22D4
:102420004A82007BC0F3460008754B75002010BD42
:10243000F0B5C26D920F0A70C26DC2F383624A702A
:10244000C26DC2F301628A70C26D120CCA70B0F81C
:102450005C20120A0A7190F85C204A71026E120D1B
:10246000CA80026EC2F303420A72B0F86020C2F35F
:10247000C0324A72B0F86020C2F380328A72B0F87B
:102480006020C2F34032CA72B0F860200026C2F366
:1024900000320A734E730122836B4FF4007463B1F0
:1024A000012B3AD0036850499963416B41F0805148
:1024B000416380F830200120F0BDB0F86030456EF7
:1024C0009B051B0D43EA95730B61436EC3F3C26317
:1024D0000B75436EC3F302634B75436EC3F34253F4
:1024E0008B75436EC3F38243CB75436EC3F3C23324
:1024F0000B760D696D1C85640B7E03F007039B1C36
:102500009D4085640B7A446503F00F0302FA03F3E0
:102510005F0A7D43C0E913350EE090F86050436ECA
:10252000AD06AD0A45EA13430B610B695B1C9B02C8
:102530008364C0E913434465B0F86430C3F3803367
:102540004B76B0F86430C3F3C6138B7690F86430E2
:1025500003F07F03CB76836EDB0F0B77836EC3F3C1
:1025600041734B77836EC3F382638B77836EC3F3C0
:102570008353CB77836EC3F3405381F8203081F8C7
:102580002160836EC3F3004381F82230B0F86830D5
:10259000C3F3C03381F82330B0F86830C3F380331D
:1025A00081F82430B0F86830C3F3403381F8253027
:1025B000B0F86830C3F3003381F82630B0F86830E3
:1025C000C3F3812381F82730B0F86830C3F30123C7
:1025D00081F8283090F86800C0F3460081F829009F
:1025E00081F82A200020F0BDFF0FE01F826B0A60F7
:1025F000C26B4A60026C8A60426CCA60826C0A617B
:10260000C26C4A61026D8A61406DC86100207047EA
:1026100070B5B0F84410002504460068090400F0C5
:1026200050FF18B1616B0143616304E02068002131
:1026300001F05CF90546C5F3432070BD2DE9F0417A
:10264000054690F8300090B00C460026032810D0C4
:102650006946284601F0DAFA2A4F4FF0010860B1C6
:102660002A68012697636A6B02436A6385F83080A3
:1026700039E0012010B0BDE8F08100994FF47F40AF
:10268000C1F3811121700099C1F34011617000996B
:1026900000EA112242EA11616180019909BA616080
:1026A000029921720299090A61720299C1F30351D8
:1026B000A172DDE9022100EA1240C9B20843A081FB
:1026C0000398C0F38520A0730398C0F30120E07342
:1026D0000398C0F303102074039800F00F00607497
:1026E0000498000EA07428684FF4007100F0E3FD18
:1026F00028B12A6801269763686385F830803046E0
:10270000B8E70000FF0FE01F2DE9F843044600681A
:10271000E56A416B09041BD5290719D5D4E909508D
:10272000202813D30026206801F0FAF8020A287046
:10273000010C6A70030EA970761CEB70082E05F16F
:102740000405F0D3A06A2038C4E90950BDE8F88335
:10275000416B0127DFF8EC810026C90551D539020C
:102760004CF23A12816329072068C16B21EA020109
:10277000C1632068C16B21F08051C1632068C168CA
:1027800021F04001C16018D515F0220F09D0206852
:1027900000F0E4FE28B1616B014361632046FFF75E
:1027A0001DFE2168AA07C1F8388084F83070E662FF
:1027B00023D1204600F0AEFAC8E72806C6D5206827
:1027C00015F0220F86622068C6622068066509D06F
:1027D000206800F0C3FE28B1616B014361632046AD
:1027E000FFF7FCFD15F0300F84F83070E66202D080
:1027F000204600F08FFAA807A8D0204600F086FAFD
:10280000A4E7416B490421D529071FD5D4E9075016
:1028100020289BD3002628780090697840EA012080
:102820000090A97840EA01400090E9782D1D40EA27
:10283000016000902068694601F08AF8761C082E35
:10284000E9D3206A2038C4E907507FE7416B11F0D3
:102850003A0F416B58D0890703D5616B41F00201F3
:102860006163416B090703D5616B41F00801616346
:10287000416B890603D5616B41F020016163416BB7
:10288000C90603D5616B41F010016163C0F838805F
:102890002068C16B21F49D71C1632068C16821F07B
:1028A0004001C1602068C16A41F40051C1622068E2
:1028B000C16841F08001C160206800F04FFE626B8A
:1028C0002B074FF4006140EA020060632068C26891
:1028D00022F08002C2602068816303D584F83070E2
:1028E000E6620DE028068BD5606B002888D0206852
:1028F000C16B21F08051C1632068066584F8307097
:102900002046FFF76BFD21E7C9009ED54FF08051AF
:1029100081632068006D40074FEA856008D4002875
:10292000204602DAFFF795FC10E7FFF790FC0DE771
:102930000028204602DAFFF78BFC07E7FFF786FC4A
:1029400004E700003A0F0018F0B5040085B020D06D
:1029500094F83000002518B92046257600F094F848
:10296000042084F83000204600F03CF888B969461D
:102970002046FFF763FE60B99DF81010A26B9DF82A
:102980001100012A08D0A5652046E168FFF762FC26
:1029900058B1012005B0F0BD014302D04FF40070E2
:1029A00001E04FF48070A065EEE7FDF70FFF01270F
:1029B000064604E0FDF70AFF801B401C0AD02046B3
:1029C000FFF726FE0428F5D16563E56284F83070D0
:1029D0000020DFE74FF00040606384F83070032090
:1029E000D8E700002DE9FC4104464FF000084FF401
:1029F0008030FEF707FA05004FF0010620D01F488F
:102A0000434642464146B5FBF0F7CDE900872068D2
:102A100000F070FF206800F07DFF78001849B5FBDA
:102A2000F0F0B1FBF0F0401CFDF798FD204601F0FE
:102A300093F858B184F83060616B0143616319E029
:102A40004FF0006084F83060606313E0204601F0CE
:102A500007F80028EED120684FF4007100F02BFC3D
:102A6000002808D0226807499163616B01436163C4
:102A700084F830600120BDE8FC81000000350C00C6
:102A800010210100FF0FE01FF0B5B5B0044614217E
:102A90002FA8FDF771FCBC216846FDF76DFC2649A7
:102AA0002068884245D14FF4803000900024684669
:102AB0001394FEF7DDFA08B1FDF72BFD1F480168FE
:102AC00041F480310160006800F4803034901B488C
:102AD0000C30016841F004010160016801F004015B
:102AE0003491016841F0080101600068022531AAB3
:102AF00000F0080034904FF4F850CDE92F0503267C
:102B00000F480C2782E8D0002FA9FDF739FD0420DB
:102B100031AACDE92F050B482FA982E8D000FDF797
:102B20002FFD002231201146FDF716FF3120FDF761
:102B300005FF35B0F0BD000000700052D4440258CB
:102B400000080258000C02582DE9F04F87B0994652
:102B500017460D460446FDF739FE06903DB194F840
:102B60003000012807D0606B40F000500DE0606B32
:102B700040F0006009E0226D002007EB090160636E
:102B8000914204D9606B40F000706063A8E00321BB
:102B900084F830102168C862A16B012900D07F023F
:102BA0004FF0020ACDE903A090264FF0FF324FEA22
:102BB000492305908DE84C0080462068694600F066
:102BC0002BFD2068B9F1010F4FF00106C16841F0FB
:102BD0004001C16006D9C4F82CA03946206800F035
:102BE000DBFB04E0E6623946206800F0EFFBDFF82B
:102BF00014A150B12368C3F838A0616B014361632D
:102C000084F83060C4F82C806AE0DDF804B01FE07E
:102C1000406B000414D5BBF1200F11D300272068AE
:102C200000F07EFE020A2870010C6A70030EA97083
:102C30007F1CEB70082F05F10405F0D3ABF1200BDE
:102C4000FDF7C4FD0699411A1098814221D200B3C4
:102C50002068416B11F4957FDAD0C16821F0400102
:102C6000C1602068416BC90522D5B9F1010F1FD998
:102C7000A16B03291CD000F071FCC8B12368C3F814
:102C800038A0626B0243626384F83060C4F82C8021
:102C900026E02268C2F838A0606B40F00040606314
:102CA00084F83060C4F82C80032007B0BDE8F08FB2
:102CB0002068416B090706D5C0F838A0616B404613
:102CC00041F0080108E0416B89070BD5C0F838A036
:102CD000616B404641F00201616384F83060E0625C
:102CE0000120E2E7416B890606D5C0F838A0616B88
:102CF000404641F02001EFE70349816384F83060EA
:102D00000020D2E7FF0FE01F3A0F001810B5FDF7C3
:102D1000EBFB10BD10B5FDF7F9FB10BD2DE9F04F31
:102D200089B09A4616460D460446FDF74FFD0690BB
:102D30003DB194F83000012807D0606B40F000509E
:102D40000DE0606B40F0006009E0226D002006EBB2
:102D50000A016063914204D9606B40F000706063C7
:102D6000B2E0032184F830102168C862A16B012908
:102D700000D076024FF0FF314FEA4A2205909023AF
:102D80000490CDE90230CDE9001280462068694602
:102D900000F042FC2068C168BAF1010F41F0400226
:102DA000C26006D92020E0622068314600F000FCB5
:102DB00005E01020E0622068314600F013FCDFF8E7
:102DC00030B106004FF001090AD02368C3F838B0CB
:102DD000606B3043606384F83090C4F82C8073E0FB
:102DE0000198089027E0406B40041CD508982028E3
:102DF00019D3002728780790697840EA01200790C6
:102E0000A97840EA01400790E9782D1D40EA016069
:102E10000790206807A900F09BFD7F1C082FE9D3CD
:102E2000089820380890FDF7D1FC0699411A1298AD
:102E3000814221D200B32068416B11F48D7FD2D042
:102E4000C16821F04001C1602068416BC90521D5EE
:102E5000BAF1010F1ED9A16B03291BD000F07EFB34
:102E6000C0B12568C5F838B0616B0143616384F86F
:102E70003090C4F82C8027E02368C3F838B0626B28
:102E80003243626384F83090C4F82C80032009B088
:102E9000BDE8F08F2068416B090707D54946C0F8A7
:102EA00038B0626B404642F0080209E0416B890786
:102EB0000CD54946C0F838B0626B404642F0020279
:102EC000626384F83010E0620120E0E7416BC906DC
:102ED00007D54946C0F838B0626B404642F0100250
:102EE000EEE7044A826384F830900020CFE70000C8
:102EF000FF0FE01F3A0F0018401EB0F1807F10B5A1
:102F000001D3012010BD4FF0E02460610F21601754
:102F100001F019F80020A0610721216110BDFEE732
:102F20000449054810B5FDF7F6FA0249491E087034
:102F300010BD0000320000240C58000830B587B0E6
:102F400014216846FDF718FA2148016841F0040190
:102F50000160016801F004010591016841F0800100
:102F60000160016801F080010591016841F01001E4
:102F70000160016801F010010591016841F0010153
:102F80000160016801F001010591016841F008014B
:102F90000160006800220F4D022100F0080005903A
:102FA0002846FDF708FC0024022001218DE81300CB
:102FB000694628460394FDF7E3FA80206946CDE987
:102FC000000405480294FDF7DBFA07B030BD0000AD
:102FD000E044025800080258001002580748002137
:102FE0004FF4804310B5044C0822C0E90041C0E909
:102FF0000213C0E9041210BD00700052BC2000246E
:10300000FEE7FEE7704700002DE9F047454D044616
:1030100089464FF0000A2868C04380070AD0414E15
:10302000283E306820F080603060FDF7CFFB074617
:10303000B04608E00120BDE8F08700BFFDF7C6FB01
:10304000C01B022867D8D8F800000001F6D4206819
:1030500029684FF4FE0721F47C313E0241EA00303A
:103060002860207AA389B4F804C040022D4D2D4970
:103070005B1E227CACF1010C1035091DA0F500701F
:1030800080B2521ECCF3080C07EA034340EA0C005E
:10309000184306EA0262104328600868626920F05B
:1030A000C000104308600A68A06922F020020243B1
:1030B0000A60281D0A6822F010020A6002684FF6B2
:1030C000F873E4699A4342EAC40202600868B9F1FD
:1030D000000F40F010020A6011D00868B9F1010F2A
:1030E00011D040F400100860D8F80000444640F0C9
:1030F0008060C8F80000FDF769FB05460DE0086830
:1031000040F40020EFE740F48010ECE7FDF75EFBB1
:10311000401B022801D903208DE720680001F5D566
:10312000504688E7284402582DE9F047454D0446AB
:1031300089464FF0000A2868C04380070AD0414EF4
:10314000283E306820F080503060FDF73FFB074696
:10315000B04608E00120BDE8F08700BFFDF736FB70
:10316000C01B022867D8D8F800008000F6D4208859
:1031700029684FF4FE0721F07C713E0241EA0050BD
:103180002860207AA389B4F804C040022D4D2D494F
:103190005B1E227CACF1010C1835091DA0F50070F6
:1031A00080B2521ECCF3080C07EA034340EA0C003D
:1031B000184306EA0262104328600868626920F436
:1031C0004060104308600A68A06922F4007202435C
:1031D0000A60281D0A6822F480720A6002684FF6AD
:1031E000F873E4699A4342EAC40202600868B9F1DC
:1031F000000F40F480720A6011D00868B9F1010F25
:1032000011D040F080700860D8F80000444640F0CB
:103210008050C8F80000FDF7D9FA05460DE00868AF
:1032200040F48000EFE740F40000ECE7FDF7CEFA51
:10323000401B022801D903208DE720688000F5D5C6
:10324000504688E7284402580148FFF75DBA00005D
:10325000BC20002430B585B0044637204FF480727E
:103260000DF1080CCDE90010002369461501204638
:103270008CE82C0000F058FB372141F288322046C0
:1032800000F0DEF905B030BD30B585B00446292028
:103290004FF480720DF1080CCDE90010002369464F
:1032A000150120468CE82C0000F03EFB204600F083
:1032B00083FA05B030BD30B50446102085B00DF15D
:1032C000080C02010502CDE90010002369468CE8D4
:1032D0002C00204600F028FB102141F288322046C5
:1032E00000F0AEF905B030BD30B585B0044606201B
:1032F0004FF480720DF1080CCDE9001000236946EF
:10330000150120468CE82C0000F00EFB062141F24E
:103310008832204600F094F905B030BD30B585B054
:103320000546002469464FF48050009401940294AD
:10333000CDE90340284600F0F7FA0B4A4FF4FA5063
:1033400041F288311268B2FBF0F04843401E03D2CC
:103350004FF0004005B030BD696B0906F6D5034952
:103360002046A963F6E7000044000024C5002000C1
:1033700030B50821044685B04FF4D5704A010023CA
:103380004D028DE82F006946204600F0CDFA204618
:1033900000F07CFA05B030BD30B585B0044612208F
:1033A0004FF480720DF1080CCDE90010002369463E
:1033B000150120468CE82C0000F0B6FA122141F2EB
:1033C0008832204600F03CF905B030BD30B585B0FC
:1033D000044611204FF480720DF1080CCDE9001065
:1033E00000236946150120468CE82C0000F09CFA69
:1033F000112141F28832204600F022F905B030BD9B
:1034000030B585B0044607204FF480720DF1080CEA
:10341000CDE9001000236946150120468CE82C00F8
:1034200000F082FA072141F28832204600F008F9C4
:1034300005B030BD10B585B00446002102204FF420
:103440004072C3020493CDE90010CDE90221694620
:10345000204600F069FA204600F084F905B010BD5E
:1034600030B585B0044609200DF1080C0023CDE9E4
:1034700000104FF4407269464FF4805520468CE8A6
:103480002C0000F051FA204600F06CF905B030BD78
:1034900010B585B00446002133204FF48072CDE989
:1034A0000221CDE90010130169462046049300F083
:1034B0003BFA332141F28832204600F0C1F805B0D2
:1034C00010BD30B585B004460D204FF480720DF16B
:1034D000080CCDE9001000236946150120468CE850
:1034E0002C0000F021FA0D2141F28832204600F034
:1034F000A7F805B030BD30B585B00C4600210546B3
:1035000003204FF48072CDE90221CDE900101301B0
:1035100069462846049300F007FA0321224628460C
:1035200000F06EF905B030BD10B585B0044600213D
:103530000D204FF48072CDE90221CDE90010130176
:1035400069462046049300F0EFF90D2141F28832DC
:10355000204600F075F805B010BD000010B585B02C
:1035600004464FF4807200200C2113018DE80700FF
:10357000CDE90303E06840F08000E060E06820F0FF
:103580004000E0606946204600F0CEF9074A0C2171
:10359000204600F055F8E168B0F1007F21F080018D
:1035A000E16000D1002005B010BD000000E1F5058C
:1035B00030B585B0044619204FF480720DF1080C27
:1035C000CDE9001000236946150120468CE82C0047
:1035D00000F0AAF9192141F28832204600F030F8B3
:1035E00005B030BD30B585B0044618204FF4807268
:1035F0000DF1080CCDE900100023694615012046A5
:103600008CE82C0000F090F9182141F28832204615
:1036100000F016F805B030BD70B50A6842624A681D
:103620008262C46AD1E90225D1E9043624F0FF019F
:103630002A4333431A431143C162002070BD000086
:1036400030B5464D4FF4FA53434C2D68B5FBF3F3B8
:1036500053435B1E02D24FF0004030BD426B22420A
:10366000F7D09204F5D4426B520703D5042181634D
:10367000084630BD426BD20702D00121816306E0CB
:10368000354A803282630269D2B28A4201D0012077
:1036900030BD002100F02AF93149084201D1002053
:1036A00030BD002802DA4FF0007030BD410001D576
:1036B000402030BD810001D5802030BDC10002D541
:1036C0004FF4807030BD010102D54FF4007030BD61
:1036D000410102D54FF4806030BDC10102D54FF4E5
:1036E000006030BD010202D54FF4805030BD410270
:1036F00002D54FF4005030BD810202D54FF4804016
:1037000030BDC10202D54FF4004030BD410302D5A7
:103710004FF4003030BD810302D54FF4802030BD1E
:10372000C10302D54FF4002030BD010402D54FF48F
:10373000801030BD410402D54FF4001030BD81042B
:1037400002D54FF4800030BD000702D54FF40000D1
:1037500030BD4FF4803030BD4500200044000024CF
:1037600008E0FFFD124B4FF4FA5141F288321B681A
:10377000B3FBF1F15143491E02D24FF000407047B4
:10378000426B12F0450FF6D09204F4D4416B490716
:1037900003D50421816308467047416BC90703D0F4
:1037A0000121816308467047024981630020704708
:1037B00044000024C50020000F4B4FF4FA5141F2A1
:1037C00088321B68B3FBF1F15143491E02D24FF01E
:1037D00000407047426B12F0450FF6D09204F4D4CB
:1037E000416B490703D504218163084670470349AB
:1037F000816300207047000044000024C5002000C1
:1038000030B5204D4FF4FA5341F288342D68B5FBA2
:10381000F3F363435B1E02D24FF0004030BD446BB4
:1038200014F0450FF6D0A404F4D4436B5B0703D522
:1038300004218163084630BD436BDB0702D00121C0
:10384000816303E00369DBB28B4201D0012030BD0C
:103850000D498163002100F049F810F4604F04D055
:10386000410406D54FF4005030BD000C10800020FC
:1038700030BD000402D54FF4805030BD4FF480308D
:1038800030BD000044000024C5002000144B4FF45C
:10389000FA5141F288321B68B3FBF1F15143491EE2
:1038A00002D24FF000407047426B12F0450FF6D045
:1038B0009204F4D4416B490703D50421816308467F
:1038C0007047416BC90703D00121816308467047E7
:1038D000416B490601D540218163002070470000FB
:1038E00044000024006800F0030070470844406969
:1038F0007047000030B511434268DDE903542B43A3
:10390000034D194321432A400A434260002030BD41
:10391000002CC0FF016841F00301016000207047E6
:10392000D0F880007047000070B5084D0A688260CA
:10393000C368D1E90126D1E903412B4032430C434E
:1039400022431343C360002070BD0000C0E0FEFFAF
:103950000968C0F8801000207047000010B5064CC0
:1039600001202070FCF77EFD18B9207820F00100BE
:103970002070207810BD0000300000242DE9F04FA9
:1039800087B00D460446FCF721FF0026069020680C
:103990000821B3463746FFF78EFC002833D1B4F830
:1039A000441020680904FFF755FC00282BD1431E62
:1039B0004FF008094FF0020A4FF0300C4FF00108A9
:1039C000CDF80CA08DE80812CDE90468206869469E
:1039D000FFF722FE2068FFF75BFD002813D140F2BD
:1039E0002A582068416B11EA080F06D1416B090380
:1039F00015D4BBF1000F09D011E0416B090717D5B1
:103A0000C0F83890082007B0BDE8F08FFFF788FFB6
:103A100006462068FFF784FF07464FF0010BFCF7CE
:103A2000D5FE0699401A401CDBD14FF00040EAE772
:103A3000416B890703D5C0F838A00220E3E7416B4A
:103A4000890603D5202181630846DCE7034A39BA99
:103A500033BA82630020C5E90013D4E73A0F001897
:103A600070B58CB004460020ADF82C00FCF7AEFE1B
:103A700005462068FFF736FF002853D0A06B0328C7
:103A800041D02068FFF7D6FC002849D120680021EA
:103A9000FFF72CFFE06604212068FFF727FF20676F
:103AA00008212068FFF722FF60670C212068FFF7DC
:103AB0001DFFA16BA067032925D041F2883600BF06
:103AC000BDF82C0088B3A06B03281CD0BDF82C10C7
:103AD000616420680904FFF7C3FC002820D1206836
:103AE0000021FFF703FFE06504212068FFF7FEFED9
:103AF000206608212068FFF7F9FE60660C21206827
:103B0000FFF7F4FEA06604212068FFF7EFFE000D2A
:103B1000694620642046FEF78BFCA8B14FF0805028
:103B20000CB070BD4FF08060FAE7FFE720680BA98A
:103B3000FFF7E1FC0028F3D1FCF748FE401BB04240
:103B4000BED34FF00040EBE7B4F8441020680904FE
:103B5000FFF756FCE4E700002DE9F84F0026044685
:103B60003546B04600960068FFF7D8FB002829D1FB
:103B70002068FFF7FDFBB0F1004F4FF001094FF057
:103B8000805B4FF6FF7702D0C4F83C9008E0E66314
:103B90002068FFF7C3FB002814D1E06B01281ED179
:103BA00020680021FFF756FB58B918E02068002173
:103BB000FFF750FB002805D120685146FFF764FB52
:103BC00010B15846BDE8F88F20680021FFF78EFE3F
:103BD0004FEAD07805460098401C009002E0DFF8DC
:103BE00028A00098B84202D2B8F1000FDED00098A9
:103BF000B84202D34FF08070E4E76800A66301D5B5
:103C0000C4F838900020DDE7000010C12DE9F04134
:103C100086B00D460446FCF7D9FD00210746206812
:103C2000FFF764FE800104D54FF4006006B0BDE8E4
:103C3000F08120684021FFF73EFBC0B9B4F8441082
:103C400020680904FFF706FB88B940214FF0FF30D8
:103C500060224FF0010C022300268DE84F102068EF
:103C60006946FFF7D9FC2068FFF75EFC98B1616BED
:103C70006163DBE7406B000407D500262068FFF78F
:103C80004FFE761C082E01C5F8D3FCF79FFDC01B24
:103C9000401C02D127E04FF000482068416B11F42E
:103CA000957FE7D0416B090701D50820BEE7416B3E
:103CB000890701D50220B9E7406B80060AD520208C
:103CC000B4E700BFFFF72CFE01C5FCF77FFDC01B6A
:103CD000401C08D02068416BC904F3D40146034856
:103CE00088630020A2E74046A0E700003A0F0018D2
:103CF00070B5064C054601202070FCF7BFFB18B9D3
:103D00002846FFF72BFE2070207870BD300000247D
:103D1000144810B58AB014460078C00702D00320BA
:103D20000AB010BD39B1012907D002290BD00329EF
:103D300010D00420F4E70020F2E76846FCF78CFB83
:103D4000069900200CE06846FCF786FB07990020E6
:103D50002180E5E76846FCF77FFB07990020490AC8
:103D60002160DDE73000002470B501241D461646B1
:103D70000846A31E2A463146FCF7A6FB28B900BF19
:103D8000FCF770FB0028FBD10024204670BDFFF734
:103D9000E5BD000070B501241D4616460846A31E69
:103DA0002A463146FCF7A2FB28B900BFFCF75AFBB4
:103DB0000028FBD10024204670BD7047FCF70CBDE5
:103DC00030B59DB04C216846FCF7D6FA202113A8E7
:103DD000FCF7D2FA0220FCF7F1FD21490A682148DC
:103DE00022F001020A600968016821F4404141F4AF
:103DF000804101600168002401F440411B91016889
:103E00008904FCD519250220009004210122039287
:103E100040230493CDE90904CDE90B15CDE90D014B
:103E20000FA90C2281E8150068461294FDF776FF71
:103E300008B172B6FEE713AB3F20032183E81300FD
:103E40000822189402211994CDE9162413A81A9473
:103E5000FDF778FD002801D072B6FEE71DB030BD39
:103E60002C040058184802582C48F0B52C4A016818
:103E700041F470010160106800F00F00072804D2BF
:103E8000106820F00F00C01D106026490020254C4E
:103E900010340B68244D43F001030B6020600B6865
:103EA0002B400B60136803F00F03072B04D9136832
:103EB00023F00F03DB1D13601A4C1C4A18341C4BF3
:103EC000261D371D2060174C1A4D28343060261DE2
:103ED0003860371D23603B1D35601C1D3A60251D71
:103EE0002E1D1860331D22602860326018600A6839
:103EF0000C4B114C22F4802260330A601860206859
:103F00006FF30F00B0F1005F03D20C490120C1F83C
:103F1000080143F2D2000A490860F0BD88ED00E0D4
:103F200000200052004402587FEDF6EA80020101B1
:103F3000000202020000FF010010005C008000513E
:103F400000400052FEE7090700284FEA116104DB38
:103F500000F1E02080F80014704700F00F0000F13D
:103F6000E02080F8141D704710B504460022501E52
:103F7000E2706063204601F0A6FA08B1042010BD8B
:103F800004F2362001F030FAA0F52A41553901D06B
:103F9000032010BD94F83800E92805D0EB2814D18F
:103FA00094F83A00902810D104F16E0001F011FA53
:103FB0000749B1EB002F06D004F18A0001F009FA9D
:103FC0000449884201D1002010BD022010BD00002C
:103FD000004641544641543300E0401C02780AB187
:103FE0008A42FAD1D0B27047F0B5154D002213467F
:103FF00005EB021426685EB10768BE4209D1666807
:104000008768BE4205D1A4684669B44204D000E086
:104010000123521C022AEBD3022A01D069B904E021
:104020004BB9022907D01220F0BD05EB02108089A0
:10403000B0F5807F01D00020F0BD1020F0BD000061
:104040003821002430B5064B0024214603EB011231
:104050001568854200D11460491C0229F6D330BD91
:10406000382100240268C06A938952895343B1FB06
:10407000F3F1001D04C81AB1914203D3891AF8E77D
:1040800000207047006808447047C269891E921E6C
:104090008A4201D800207047026B408901FB002052
:1040A000704700002DE9F05F0C46824601F11A00CE
:1040B00001F09AF978BB207801270026DFF860909C
:1040C00000F03F004FF6FF7B401E00EB800101EB4C
:1040D000C00500BF19F80600204401F085F98046AC
:1040E0006FB1FF2D17D200F087FE07463AF8150092
:1040F0006D1C00F081FE87420DD1474601E0D84596
:1041000009D1761C0D2EE5D32078400606D52FB1B7
:104110003AF8150010B10020BDE8F09F0120FBE740
:10412000B05800082DE9F04105680F00804606D020
:1041300001F066F8022809D20120BDE8F0816E691D
:1041400016B1E869B04207D8012605E0411CF4D059
:10415000E9698142F1D83E463446E869641CA042D0
:1041600003D8022E4FF002040AD32146404601F044
:1041700047F838B10128E0D0411CDED0B442ECD180
:104180000020DAE74FF0FF3621463246284601F09C
:10419000B3F930B957B122463946284601F0ACF997
:1041A00020B101280FD001242046C6E7D5E9060139
:1041B0006C61891E884201D8401EA861287940F0B0
:1041C00001002871F0E73446EEE700002DE9F84FD2
:1041D00088460168002482462546D8F800600F69A9
:1041E000705D6D1C20281AD32F2813D05C2811D0A5
:1041F000FF2C38D2012100F0E1FD5FEA000932D046
:10420000B9F1800F12D201466BA0FFF7E5FE50BB5B
:104210000CE06D1C715D2F29FBD05C29F9D0711960
:10422000C8F80010202805D204250EE027F81490C5
:10423000641CD5E7002508E007EB440030F8020CC9
:10424000202801D02E2802D1641E002CF4D1002099
:1042500027F814003CB10B2220210AF1240001F0C0
:104260002BF9002603E00620BDE8F88F761C37F80E
:1042700016002028FAD02E28F8D01EB145F00305EC
:1042800000E0641E2CB107EB440030F8020C2E282D
:10429000F7D14FF000094FF0080BCDF8009000BFA8
:1042A00037F8160006F101065FEA000824D0B8F1DD
:1042B000200F04D0B8F12E0F04D1A64202D045F051
:1042C0000305EDE70098584501D2A64219D1BBF18C
:1042D0000B0F0FD0A64201D045F003050CD84FEAD2
:1042E000896126464FF008004FF00B0B4FEA116929
:1042F0000090D5E745F003059AF82400E52836D06C
:1043000038E0B8F1800F404610D3002100F056FD90
:104310005FEA000805D02B4901EB080010F8800C7B
:104320008046B8F1000F45F0020504D0014626A0F2
:10433000FFF752FE18B15F2045F003050EE0A8F12B
:104340004100192802D849F0020908E0A8F16100EB
:10435000192804D8413080B249F001098046009AFA
:1043600000995244491C009182F8248098E7052165
:104370008AF82410BBF1080F03D14FEA89604FEA95
:104380001069C9F38100032803D06FEA0901890786
:1043900001D145F00205A90709D409F0030101295B
:1043A00001D145F01005012801D145F008058AF832
:1043B0002F50002058E70000222A3A3C3E3F7C7FE5
:1043C00000000000305800082B2C3B3D5B5D0000D6
:1043D000401E022812D20A4901EB00118889B0F56B
:1043E000807F05D008B1401E80B2888110B103E003
:1043F0000020FAE700200860002070470220704784
:10440000382100242DE9F047D0F80090002104461F
:1044100000F0D6F900285CD1471E2763FF25A84687
:10442000E169484601F04FF8060051D1216A087849
:1044300050B1CA7AE52802F03F02A27140D01307BA
:1044400004D50F2A3CD105E0042641E00F2A01D013
:10445000E5B120E094F82F20520633D4420606D569
:1044600091F80D8000F0BF00636905462363A84200
:1044700009D14A7B424506D1D9F81000FFF712FE58
:1044800008B16D1E00E0FF25EDB21BE0084601F00B
:1044900023F940451CD094F82F00C00710D1D4F860
:1044A00020100B2204F12400521E11F8013B10F8D9
:1044B000015BA3EB050302D0002BF5D000E03BB17C
:1044C000FF2527630021204600F006F80600A7D04C
:1044D0003046BDE8F08700002DE9F0470546476902
:1044E000C069894620372C6810B1B7F5001F02D388
:1044F0000420BDE8F087A189B7FBF1F201FB12713E
:1045000000295FD1A969401C4FF00008E86119B388
:10451000A0896289B7FBF0F0521E104252D12846A2
:1045200000F06EFE012806461FD9701C36D0E069E7
:10453000B04241D8B9F1000F12D0A9692846FFF75F
:10454000F1FD06000FD0012E0FD0701C26D02046A2
:1045500001F014F910BB0AE02089B0EB571F31D8E5
:10456000C5F81C80C4E70720C3E70220C1E7A28981
:10457000002104F1380000F09FFF4FF000083146A1
:104580002046FFF782FD4FF0010960630DE000BF98
:10459000204684F8039001F0F1F808B10120A8E763
:1045A000616B08F10108491C616360894045EFD8DF
:1045B000616BA1EB0800606331462046AE61FFF7F6
:1045C00064FDE8616F61A089B7FBF0F100FB117039
:1045D00020443830286200208BE700002DE9F04F9E
:1045E000044690F82F008FB010F0A00FD4F8009080
:1045F00003D006200FB0BDE8F08FD9F810000025D9
:1046000000E06D1C30F815100029FAD10C2204F1DD
:104610002401029108A800F045FF9DF82B00C00777
:1046200019D0402084F82F000126D9F810200298D4
:1046300008A9334600F0A4FD2046FFF7E3FE10B9B9
:10464000761C642EF1D3642E0FD00428D2D19DF8AD
:104650002B0084F82F009DF82B00800707D50D2034
:104660000C35B5FBF0F56D1C02E00720C2E7012513
:1046700027680021204600F0A3F888B90026E169E8
:10468000384600F020FF58B9206A0078E5280AD0A3
:1046900048B1002620460121FFF71EFF0028EED07A
:1046A000042812D012E0761C2846AE42F2D1451EF4
:1046B0000B9567D06169684201EB4011204600F01C
:1046C0007FF85FEA000803D076E00720804673E0B9
:1046D000029801F001F84FF6FF7B0C90E169484623
:1046E00000F0F1FE5FEA000866D10B990F23D4F8C1
:1046F0002080C9B20391D9F810100C9805910021BF
:1047000088F80D0008F11A0088F80B3088F80C10B2
:1047100000F0DEFF03990027DFF8A0A0491E01EB9F
:10472000810202EBC10601E05D4503D0059830F837
:104730001650761C1AF8071001EB0800294600F005
:10474000C7FF05B95D467F1C0D2FEDD35D4505D034
:10475000059830F8160008B1039803E0039840F07C
:104760004000039088F800000120002189F8030030
:104770002046FFF7B1FE5FEA00081DD10B98401EEE
:104780000B90ABD1E169484600F09DFE5FEA00085E
:1047900012D1206A2022002100F08EFE206A0B2216
:1047A000029900F07FFE226A012094F82F1001F098
:1047B0001801117389F8030040461BE7B058000840
:1047C0002DE9F0410468B1F5001F0F4606463CD2C2
:1047D000F8063AD1B568776125B92078032806D361
:1047E000E56A25B16089A18900FB01F812E0208902
:1047F000B0EB571F29D9E06A12E0304600F000FD07
:104800000546401C1FD0022D1FD3E069A8421CD9C9
:10481000A7EB080729464745EFD22046FFF735FCAE
:10482000C6E9065088B1A189B7FBF1F10844F061EF
:10483000A089B7FBF0F100FB1170204438303062E2
:104840000020BDE8F0810120FBE70220F9E700002D
:104850000849002210B50B5C4BB901220A5401EB48
:10486000800208445168007A096888470246104669
:1048700010BD000058210024044B30B403EB800429
:1048800018446368007A1B6930BC1847582100241B
:1048900030B4054C04EB800520446C68007AA468B1
:1048A000A44630BC6047000058210024034901EBB6
:1048B000800208445168007A49680847582100245A
:1048C00030B4054C04EB800520446C68007AE46841
:1048D000A44630BC604700005821002438B5044687
:1048E00000F04EF900280CD16946204600F06FFF19
:1048F000002806D12069FFF76BFD002801D10021B7
:10490000216038BD2DE9F74181B0904602980090B2
:10491000684600F0ECFC040003D50B2004B0BDE8B1
:10492000F0810D4E002756F824501DB12846FFF7A0
:1049300089FB2F700198002800D0077046F82400EA
:1049400002D0B8F1010F01D00020E7E7002201A951
:1049500002A800F091FAE1E7500000242DE9F743A6
:104960000500ADF5147D0BD002F03F06694695A811
:10497000324600F081FA04004FF0000805D0F6E05E
:1049800009200DF5177DBDE8F083009810A901906E
:10499000016101A8959900F0B5FB04000ED19DF8C6
:1049A0003300000601D5062408E0700801D001217B
:1049B00000E0002101A8FFF717FB044616F01C0FCA
:1049C0005DD04FF00109C4B1042C10D16B49002017
:1049D00002E0401C022804D201EB00121268002AF7
:1049E000F7D1022807D001A8FFF7F8FD044646F0EA
:1049F00008065CB1BBE01224B9E09DF80A0010F093
:104A0000110F48D1700701D50824B0E0300748D510
:104A100000F06BFC0746099839460E3000F050FE56
:104A200009983946163000F04BFE09992020C872CB
:104A30000999009800F0BAFC0999002207460098ED
:104A400000F02AFE099800211C3000F039FE009980
:104A500081F803901FB3D1F83490002201A83946A1
:104A600000F0E0FD040009D10098494600F02BFD5C
:104A700004000098A7F1010747610ED077E0002CF1
:104A800075D19DF80A00C10601D504246FE0B10775
:104A900003D5C00701D0072469E0300701D546F0EF
:104AA00040060098406B68620998A862700801D0BF
:104AB000012100E0002101A800F038FC2861B8B312
:104AC0000999009800F072FCA86009981C3000F069
:104AD00080FCC5F82C800146E96005F130000099A2
:104AE0004FF48052296081460099C988A98000212D
:104AF0002E7585F81580C5F82080C5F8188000F05F
:104B0000DBFCB00635D5EE689EB3AE610098A968AF
:104B10004789808947430FE0284600F071FB012850
:104B2000014600D80224481C03D0F61B24B105E03E
:104B300021E00124F61B01E0BE42EDD8E961B4B9E1
:104B400000988289B6FBF2F302FB13628AB1FFF789
:104B50009CFA80B1009901238A89B6FBF2F20244E3
:104B60002A6248784946FFF793FE10B10124C5F840
:104B70000080204605E70224F9E7000038210024E0
:104B8000F8B50446694600F022FE00280ED1217DCA
:104B90004A060BD508060ED500980123226A04F1B7
:104BA00030014078FFF78CFE08B10120F8BD207D70
:104BB00000F07F00207500F098FB616A06460098BF
:104BC00000F081FC0028F1D1A56A2946E87A40F07E
:104BD0002000E872A268206800F05EFDE16805F13F
:104BE0001C0000F06DFD05F11600314600F068FD77
:104BF000002105F1120000F06BFD00980121C17049
:104C000000F078FD217D01F0BF012175F8BD2DE98F
:104C1000FE4F154699460022044688461A6002A9AE
:104C200000F0D5FD002806D1607D002803D1207D4D
:104C3000800702D40720BDE8FE8FA069012704F198
:104C4000300B4FF0020A411900D3C543ADE0029A80
:104C5000A1699089B1FBF0F300FB1313002B7AD10B
:104C6000B1FBF0F65289521E164018D129B1E06A04
:104C700038B12046FFF7F6F907E0A06838B90021FF
:104C800000E0E1692046FFF74DFA00287DD00128B9
:104C900030D0411C59D0A168E06101B9A060207DED
:104CA00000060BD502980123226A59464078FFF787
:104CB00007FEC8BB207D00F07F002075E1690298E7
:104CC000FFF7E3F9B0B10299304401908889B5FB50
:104CD000F0F0009048B3009A48893244824201D9EA
:104CE000801B009048784146DDE90032FFF7E8FD7F
:104CF000D0B903E0022084F815A09CE7216A01984E
:104D0000081A009988420AD202998A8900FB028116
:104D1000584600F0C7FB207D00F07F002075029808
:104D20008689009846432FE00FE0FFE7226A01984A
:104D300082420ED0E268A06990420AD248780123EC
:104D4000019A5946FFF7A4FD18B10120677572E773
:104D500001E0019820620298A1698089B1FBF0F21C
:104D600000FB1212861AAE4200D92E46B1FBF0F2B9
:104D700000FB1210324641462044303000F092FBD6
:104D8000207D40F08000207500E011E0A269B04471
:104D9000E1689019A061884200D80846E060D9F81F
:104DA0000000AD1B8119C9F80010002D7FF44FAF32
:104DB000207D40F04000207500203CE7802804D38F
:104DC0000C4A51B1FF2801D90020704702EB400086
:104DD000A0F58050B0F8000F7047002132F8113074
:104DE000834203D0491C89B28029F7D38031C8B2ED
:104DF00070470000DA58000830B5B0F5805F01D286
:104E00001B4900E01B4931F8022B002A15D09042C3
:104E100013D331F8024B52FA84F5230A8542E4B2E7
:104E200021D9092B09D2DFE803F005090E1113156A
:104E300017191B00801A31F8100030BD811A01F0DB
:104E40000101401A00E0103880B230BD2038FBE785
:104E50003038F9E71A38F7E70830F5E75038F3E764
:104E6000A0F5E350F0E7002BCDD101EB4401CAE7F8
:104E7000DA590008CC5B00082DE9FF410027904675
:104E80000E460F6000F033FA050003D50B2004B086
:104E9000BDE8F081984850F825409CB1346008F096
:104EA000FE06207820B16078FFF700FDC1070BD027
:104EB0002770B846E8B26070FFF7CAFCC10708D097
:104EC0000320E4E70C20E2E70EB1400704D4002001
:104ED000DDE71EB1400701D50A20D8E7607802213E
:104EE00004F10C02FFF7C8FCF0BBA089A0F500712B
:104EF000B1F5606F40D8411E08423DD100262046E2
:104F00003146FFF731F8022822D100254FEA0D077C
:104F100004EB051090F8FA1100F5FB7019B1083098
:104F200000F057FA00E0002047F825006D1C042D22
:104F3000EED3002557F8256036B131462046FFF7FD
:104F400013F8022801D203E003206D1C042DF1D3D5
:104F5000042811D002287AD204F1430000F044FA68
:104F6000A189884273D100E006E004F14E0000F010
:104F70003BFA010002D006E0012088E704F15C0062
:104F800000F027FA014694F848502162012DA570DF
:104F900001D0022D5BD14D4394F845006081E8B308
:104FA000411E084253D104F1490000F01DFAA189C5
:104FB00020814909B0FBF1F201FB120070BB04F142
:104FC0004B0000F011FA070004D104F1580000F082
:104FD00000FA074604F1460000F006FA020036D057
:104FE000A089511923894009B3FBF0F001448F4295
:104FF0002DD360897F1AB7FBF0F078B103274FF605
:10500000F57C604500D8022740F6F57C604500D865
:105010000127801C32443144216300E017E0E06145
:10502000032FC4E9096214D08BB15119E162022F38
:1050300020D000F0010100EB400001EB5000A189FD
:10504000401E226A0844B0FBF1F0904214D90D20B2
:105050001DE704F1620000F0C7F90028F7D12089AC
:105060000028F4D104F1640000F0B3F9E169E062D2
:105070008800E4E74000E2E74FF0FF31A1618020C3
:105080006161032F20712CD104F1680000F0ACF9AC
:10509000012826D1711C204600F015FA08BB04F245
:1050A000362084F8048000F09FF9A0F52A41553994
:1050B00017D104F1380000F08CF91049884210D162
:1050C00004F5077000F085F90D49884209D104F50F
:1050D000087000F07EF9A06104F5097000F079F91C
:1050E000606105492770091F0888401C0880E0801E
:1050F0002046FEF7A7FFEAE6500000245252614125
:105100007272416173B505680446019801E0401C64
:10511000019001782F29FAD05C29F8D00021A160F4
:1051200001980078202806D2802084F82F0020469D
:10513000FFF746FB7CBD01A92046FFF747F8002892
:10514000F8D12046FFF75EF994F82F1028B1042813
:10515000F0D14907EED405207CBD4907FCD4A079E5
:10516000C006F8D5A9896069B0FBF1F201FB120015
:1051700041192846383100F019F9A060DBE700003A
:105180007CB51C4616460B22054600F08BF9052C13
:1051900011D91A4A0CE00021B61C234604464008E7
:1051A00063F35F04E30300D55440491C1029F4D392
:1051B00030880028EFD107214FEA0D0204F00F00DC
:1051C0003030392800D9C01D50542409A1F1010103
:1051D000F4D17E230020535400E0401C884202D2C8
:1051E0002B5C202BF9D1082902D2535C491C00E02A
:1051F00020232B54401C0828F5D37CBD211001002E
:105200002DE9F041046802290D460BD3E069A8425C
:1052100008D920784FF0FF36012807D0022835D072
:1052200003284AD001263046BDE8F081A08905EB6D
:105230005507A16AB7FBF0F00144204600F043F99E
:105240000028F0D1A08907F10108B7FBF0F100FBBD
:105250001171B8FBF0F0214491F83870A16A014453
:10526000204600F030F90028DDD1A089E907B8FB1D
:10527000F0F200FB1280204490F8381047EA012039
:1052800001D00609CFE7C0F30B06CCE7A189A06ADD
:105290004908B5FBF1F10144204600F014F900285B
:1052A000C1D1A0896900B1FBF0F200FB12102044CB
:1052B000383000F099F80646B5E7A189A06A890858
:1052C000B5FBF1F10144204600F0FDF80028AAD119
:1052D000A089A900B1FBF0F200FB12102044383085
:1052E00000F077F820F070469DE70020704710B579
:1052F000026804464FF0FF30002A13D0114600E048
:10530000491C0B78202B0ED33A2BF9D112F8013B14
:10531000303B0A2B06D28A4204D1002B02D1491C11
:105320001846216010BD002010BD0000F0B51E4AD7
:10533000034605685FF0000002EB00142668AE42E9
:1053400007D166689F68BE4203D1A4685E69B44213
:1053500002D0401C0228EFD3022814D1002002E022
:10536000401C022804D202EB00142468002CF7D160
:1053700002280ED002EB0014002625609D686560AF
:105380005B69A360A681002902EB0011898902D024
:1053900019B10020F0BD491C01E04FF4807102EB0F
:1053A0000012401C9181F0BD3821002470B50D46DB
:1053B000064601F11A0000F017F804463078032879
:1053C00005D105F1140000F00FF844EA004420462E
:1053D00070BD837842780178C07843EA002042EAC1
:1053E000002041EA002070470178407841EA00201F
:1053F000704700008AB00024009401940294039442
:10540000FBF76EFA01208DF80C001F218DF80810B3
:1054100087228DF809208DF80D008DF80000684670
:105420008DF80A408DF80E408DF8014001948DF8FA
:105430000B408DF80F40FBF725FA0420FBF75EFACE
:10544000FBF7D2F9FEF7BCFCFDF778FDFDF7C6FDD2
:10545000FDF766FD0E4804A9FCF7C1FF0E480022C7
:105460000CA1FFF74FFA0D4C0A22211D20700C48A9
:10547000FFF774FAA31C20700948232203F10B01E3
:10548000FFF7C5FB20700648FFF728FA2070FEE7FB
:10549000BC20002400000000540000240000002470
:1054A0008C100024002A05D011F8013B521E00F890
:1054B000013BF9D1704700005FFA81F1521E00F8FC
:1054C000011BFBD1704770B50446406B00260D46AA
:1054D000A8420FD0204600F051F906000AD16078AA
:1054E000012304F138012A46FFF7D2F908B1751EED
:1054F00001266563304670BD2DE9F0470229174645
:105500000D4604464FF002067ED3E069A8427BD9DF
:1055100020784FF00109012804D0022843D0032845
:105520007DD157E0A18905EB5508A26AB8FBF1F0DF
:1055300081182046FFF7C7FF060070D1A2894046B8
:10554000EE07B8FBF2F308F1010802FB1300204458
:1055500000F1380004D00178FAB262F31F1100E0C4
:105560003946017084F80390A189A26AB8FBF1F072
:1055700081182046FFF7A7FF060050D1A189EB074D
:10558000B8FBF1F201FB1280204400F1380002D098
:10559000C7F3071105E00178C7F3032201F0F0011A
:1055A0001143017039E0A189A06A4908B5FBF1F106
:1055B00001442046FFF787FF060030D1A08969002B
:1055C000B1FBF0F200FB1210B9B22044383000F009
:1055D0007FF822E0A189A06A8908B5FBF1F10144B6
:1055E0002046FFF770FF060019D1A089AD00B5FB7A
:1055F000F0F100FB115020443830FFF7EAFE67F36A
:105600001B000146A08900E009E0B5FBF0F200FBB9
:1056100012502044383000F053F884F8039030469C
:10562000BDE8F0872DE9F0410568022913460E46D2
:1056300007462DD3E869B0422AD93BB14FF0FF327B
:1056400019462846FFF758FF00281FD13146384633
:10565000FFF7D6FD040018D0012C19D0601C19D01A
:10566000002231462846FFF747FF00280ED1D5E932
:105670000610821E914205D22A79491CA96142F086
:1056800001022A712646B042E0D80020BDE8F08130
:105690000220FBE70120F9E770B50C46154691B2F0
:1056A000064604F11A0000F013F83078032806D1FA
:1056B000290C04F11400BDE8704000F009B870BD79
:1056C0000A0A01704270110A81700A0AC27070479A
:1056D0000A0A017042707047014600200B2210B583
:1056E000440811F8013B04EBC0101844521EC0B22C
:1056F000F6D110BD70B5044600F040F8050036D173
:10570000207803282CD12079012829D104F13800F0
:10571000A28900210646FFF7CFFE04F236204AF6A2
:105720005521FFF7D5FF13493046FFF7C9FF12494E
:1057300004F50770FFF7C4FFA16904F50870FFF7CF
:10574000BFFF616904F50970FFF7BAFF626A0123C0
:105750003146521C62636078FFF7B2F80020207176
:10576000002260781146FFF787F800B1012528462E
:1057700070BD000052526141727241612DE9F041E9
:105780000446C0780027F8B1656B04F138016078F1
:1057900001232A468846FFF793F808B1012713E052
:1057A000A26A0020216AAA1AE0708A420CD2A67866
:1057B00008E0206A01234146054460782A46FFF745
:1057C0007FF8761E022EF4D23846BDE8F08170B51F
:1057D00004000E464FF009050CD0206850B1017846
:1057E00041B1A188C288914204D14078FFF75EF8A8
:1057F000C00703D000203060284670BD2068002517
:10580000F9E74FF04070E1EE100A7047F13C0008F4
:105810008F3D0008693D0008953D0008113D0008D6
:105820000000000001020304010203040607080946
:10583000809A45418E418F804545454949498E8F23
:105840009092924F994F555559999A9B9C9D9E9F26
:1058500041494F55A5A5A6A7A8A9AAABACADAEAF27
:10586000B0B1B2B3B4B5B6B7B8B9BABBBCBDBEBFC0
:10587000C0C1C2C3C4C5C6C7C8C9CACBCCCDCECFB0
:10588000D0D1D2D3D4D5D6D7D8D9DADBDCDDDEDFA0
:10589000E0E1E2E3E4E5E6E7E8E9EAEBECEDEEEF90
:1058A000F0F1F2F3F4F5F6F7F8F9FAFBFCFDFEFF80
:1058B00001030507090E10121416181C1E00010022
:1058C000040010004000000100020000010002007E
:1058D00004000800100020000000C700FC00E900E0
:1058E000E200E400E000E500E700EA00EB00E80089
:1058F000EF00EE00EC00C400C500C900E600C600E1
:10590000F400F600F200FB00F900FF00D600DC0016
:10591000A200A300A500A7209201E100ED00F30082
:10592000FA00F100D100AA00BA00BF001023AC00B9
:10593000BD00BC00A100AB00BB00912592259325C2
:1059400002252425612562255625552563255125E7
:1059500057255D255C255B251025142534252C2530
:105960001C2500253C255E255F255A2554256925E3
:105970006625602550256C256725682564256525E5
:1059800059255825522553256B256A2518250C25A0
:10599000882584258C2590258025B103DF0093037D
:1059A000C003A303C303B500C403A6039803A9035C
:1059B000B4031E22C603B50329226122B100652269
:1059C000642220232123F7004822B0001922B700C7
:1059D0001A227F20B200A025A00061001A03E00077
:1059E0001703F8000703FF000100780100013001F0
:1059F00032010601390110014A012E017901060127
:105A000080014D00430281018201820184018401F1
:105A100086018701870189018A018B018B018D0134
:105A20008E018F0190019101910193019401F60182
:105A300096019701980198013D029B019C019D01EF
:105A400020029F01A001A001A201A201A401A401C2
:105A5000A601A701A701A901AA01AB01AC01AC01F4
:105A6000AE01AF01AF01B101B201B301B301B501A4
:105A7000B501B701B801B801BA01BB01BC01BC0155
:105A8000BE01F701C001C101C201C301C401C501CA
:105A9000C401C701C801C701CA01CB01CA01CD01B8
:105AA0001001DD0101008E01DE011201F30103008E
:105AB000F101F401F401F8012801220212013A0275
:105AC0000900652C3B023B023D02662C3F0240026E
:105AD0004102410246020A0153024000810186014F
